{
  "_format": "hh-sol-artifact-1",
  "contractName": "BeliefMarket",
  "sourceName": "contracts/BeliefMarket.sol",
  "abi": [
    {
      "inputs": [],
      "stateMutability": "nonpayable",
      "type": "constructor"
    },
    {
      "inputs": [],
      "name": "HandlesAlreadySavedForRequestID",
      "type": "error"
    },
    {
      "inputs": [],
      "name": "InvalidKMSSignatures",
      "type": "error"
    },
    {
      "inputs": [],
      "name": "NoHandleFoundForRequestID",
      "type": "error"
    },
    {
      "anonymous": false,
      "inputs": [
        {
          "indexed": false,
          "internalType": "string",
          "name": "betId",
          "type": "string"
        },
        {
          "indexed": false,
          "internalType": "address",
          "name": "creator",
          "type": "address"
        },
        {
          "indexed": false,
          "internalType": "uint256",
          "name": "stakeAmount",
          "type": "uint256"
        },
        {
          "indexed": false,
          "internalType": "uint256",
          "name": "voteStake",
          "type": "uint256"
        },
        {
          "indexed": false,
          "internalType": "uint256",
          "name": "expiryTime",
          "type": "uint256"
        }
      ],
      "name": "BetCreated",
      "type": "event"
    },
    {
      "anonymous": false,
      "inputs": [
        {
          "indexed": false,
          "internalType": "string",
          "name": "betId",
          "type": "string"
        },
        {
          "indexed": false,
          "internalType": "bool",
          "name": "yesWon",
          "type": "bool"
        },
        {
          "indexed": false,
          "internalType": "uint64",
          "name": "revealedYes",
          "type": "uint64"
        },
        {
          "indexed": false,
          "internalType": "uint64",
          "name": "revealedNo",
          "type": "uint64"
        },
        {
          "indexed": false,
          "internalType": "uint256",
          "name": "totalPrize",
          "type": "uint256"
        }
      ],
      "name": "BetResolved",
      "type": "event"
    },
    {
      "anonymous": false,
      "inputs": [
        {
          "indexed": false,
          "internalType": "string",
          "name": "betId",
          "type": "string"
        }
      ],
      "name": "CallbackFlagSet",
      "type": "event"
    },
    {
      "anonymous": false,
      "inputs": [
        {
          "indexed": false,
          "internalType": "string",
          "name": "step",
          "type": "string"
        },
        {
          "indexed": false,
          "internalType": "string",
          "name": "betId",
          "type": "string"
        }
      ],
      "name": "DebugCallbackStep",
      "type": "event"
    },
    {
      "anonymous": false,
      "inputs": [
        {
          "indexed": true,
          "internalType": "uint256",
          "name": "requestID",
          "type": "uint256"
        }
      ],
      "name": "DecryptionFulfilled",
      "type": "event"
    },
    {
      "anonymous": false,
      "inputs": [
        {
          "indexed": true,
          "internalType": "address",
          "name": "to",
          "type": "address"
        },
        {
          "indexed": false,
          "internalType": "uint256",
          "name": "amount",
          "type": "uint256"
        }
      ],
      "name": "PlatformFeesWithdrawn",
      "type": "event"
    },
    {
      "anonymous": false,
      "inputs": [
        {
          "indexed": false,
          "internalType": "string",
          "name": "betId",
          "type": "string"
        },
        {
          "indexed": false,
          "internalType": "address",
          "name": "winner",
          "type": "address"
        },
        {
          "indexed": false,
          "internalType": "uint256",
          "name": "amount",
          "type": "uint256"
        }
      ],
      "name": "PrizeDistributed",
      "type": "event"
    },
    {
      "anonymous": false,
      "inputs": [
        {
          "indexed": false,
          "internalType": "string",
          "name": "betId",
          "type": "string"
        },
        {
          "indexed": false,
          "internalType": "uint256",
          "name": "requestId",
          "type": "uint256"
        }
      ],
      "name": "TallyRevealRequested",
      "type": "event"
    },
    {
      "anonymous": false,
      "inputs": [
        {
          "indexed": false,
          "internalType": "string",
          "name": "betId",
          "type": "string"
        }
      ],
      "name": "VoteCast",
      "type": "event"
    },
    {
      "anonymous": false,
      "inputs": [
        {
          "indexed": true,
          "internalType": "address",
          "name": "user",
          "type": "address"
        },
        {
          "indexed": false,
          "internalType": "uint256",
          "name": "amount",
          "type": "uint256"
        }
      ],
      "name": "WithdrawalPending",
      "type": "event"
    },
    {
      "inputs": [],
      "name": "MAX_DURATION",
      "outputs": [
        {
          "internalType": "uint256",
          "name": "",
          "type": "uint256"
        }
      ],
      "stateMutability": "view",
      "type": "function"
    },
    {
      "inputs": [],
      "name": "MIN_DURATION",
      "outputs": [
        {
          "internalType": "uint256",
          "name": "",
          "type": "uint256"
        }
      ],
      "stateMutability": "view",
      "type": "function"
    },
    {
      "inputs": [],
      "name": "MIN_VOTE_STAKE",
      "outputs": [
        {
          "internalType": "uint256",
          "name": "",
          "type": "uint256"
        }
      ],
      "stateMutability": "view",
      "type": "function"
    },
    {
      "inputs": [
        {
          "internalType": "string",
          "name": "",
          "type": "string"
        }
      ],
      "name": "callbackHasBeenCalled",
      "outputs": [
        {
          "internalType": "bool",
          "name": "",
          "type": "bool"
        }
      ],
      "stateMutability": "view",
      "type": "function"
    },
    {
      "inputs": [
        {
          "internalType": "string",
          "name": "betId",
          "type": "string"
        }
      ],
      "name": "claimPrize",
      "outputs": [],
      "stateMutability": "nonpayable",
      "type": "function"
    },
    {
      "inputs": [
        {
          "internalType": "string",
          "name": "betId",
          "type": "string"
        }
      ],
      "name": "claimRefund",
      "outputs": [],
      "stateMutability": "nonpayable",
      "type": "function"
    },
    {
      "inputs": [
        {
          "internalType": "string",
          "name": "betId",
          "type": "string"
        },
        {
          "internalType": "uint256",
          "name": "voteStake",
          "type": "uint256"
        },
        {
          "internalType": "uint256",
          "name": "duration",
          "type": "uint256"
        }
      ],
      "name": "createBet",
      "outputs": [],
      "stateMutability": "payable",
      "type": "function"
    },
    {
      "inputs": [
        {
          "internalType": "string",
          "name": "betId",
          "type": "string"
        }
      ],
      "name": "getBet",
      "outputs": [
        {
          "internalType": "address",
          "name": "creator",
          "type": "address"
        },
        {
          "internalType": "uint256",
          "name": "platformStake",
          "type": "uint256"
        },
        {
          "internalType": "uint256",
          "name": "voteStake",
          "type": "uint256"
        },
        {
          "internalType": "uint256",
          "name": "expiryTime",
          "type": "uint256"
        },
        {
          "internalType": "bool",
          "name": "isResolved",
          "type": "bool"
        },
        {
          "internalType": "uint64",
          "name": "yesVotes",
          "type": "uint64"
        },
        {
          "internalType": "uint64",
          "name": "noVotes",
          "type": "uint64"
        },
        {
          "internalType": "uint256",
          "name": "prizePool",
          "type": "uint256"
        },
        {
          "internalType": "bool",
          "name": "yesWon",
          "type": "bool"
        }
      ],
      "stateMutability": "view",
      "type": "function"
    },
    {
      "inputs": [
        {
          "internalType": "string",
          "name": "betId",
          "type": "string"
        }
      ],
      "name": "getDecryptionRequestId",
      "outputs": [
        {
          "internalType": "uint256",
          "name": "",
          "type": "uint256"
        }
      ],
      "stateMutability": "view",
      "type": "function"
    },
    {
      "inputs": [
        {
          "internalType": "string",
          "name": "betId",
          "type": "string"
        }
      ],
      "name": "getRevealStatus",
      "outputs": [
        {
          "internalType": "bool",
          "name": "isResolved",
          "type": "bool"
        },
        {
          "internalType": "uint64",
          "name": "revealedYes",
          "type": "uint64"
        },
        {
          "internalType": "uint64",
          "name": "revealedNo",
          "type": "uint64"
        },
        {
          "internalType": "uint256",
          "name": "decryptionRequestId",
          "type": "uint256"
        }
      ],
      "stateMutability": "view",
      "type": "function"
    },
    {
      "inputs": [
        {
          "internalType": "string",
          "name": "betId",
          "type": "string"
        },
        {
          "internalType": "address",
          "name": "user",
          "type": "address"
        }
      ],
      "name": "hasUserClaimed",
      "outputs": [
        {
          "internalType": "bool",
          "name": "",
          "type": "bool"
        }
      ],
      "stateMutability": "view",
      "type": "function"
    },
    {
      "inputs": [
        {
          "internalType": "string",
          "name": "",
          "type": "string"
        },
        {
          "internalType": "address",
          "name": "",
          "type": "address"
        }
      ],
      "name": "hasVoted",
      "outputs": [
        {
          "internalType": "bool",
          "name": "",
          "type": "bool"
        }
      ],
      "stateMutability": "view",
      "type": "function"
    },
    {
      "inputs": [
        {
          "internalType": "string",
          "name": "betId",
          "type": "string"
        }
      ],
      "name": "isCallbackCalled",
      "outputs": [
        {
          "internalType": "bool",
          "name": "",
          "type": "bool"
        }
      ],
      "stateMutability": "view",
      "type": "function"
    },
    {
      "inputs": [
        {
          "internalType": "string",
          "name": "betId",
          "type": "string"
        }
      ],
      "name": "isRevealRequested",
      "outputs": [
        {
          "internalType": "bool",
          "name": "",
          "type": "bool"
        }
      ],
      "stateMutability": "view",
      "type": "function"
    },
    {
      "inputs": [],
      "name": "isTesting",
      "outputs": [
        {
          "internalType": "bool",
          "name": "",
          "type": "bool"
        }
      ],
      "stateMutability": "view",
      "type": "function"
    },
    {
      "inputs": [],
      "name": "owner",
      "outputs": [
        {
          "internalType": "address",
          "name": "",
          "type": "address"
        }
      ],
      "stateMutability": "view",
      "type": "function"
    },
    {
      "inputs": [],
      "name": "platformFees",
      "outputs": [
        {
          "internalType": "uint256",
          "name": "",
          "type": "uint256"
        }
      ],
      "stateMutability": "view",
      "type": "function"
    },
    {
      "inputs": [],
      "name": "platformStake",
      "outputs": [
        {
          "internalType": "uint256",
          "name": "",
          "type": "uint256"
        }
      ],
      "stateMutability": "view",
      "type": "function"
    },
    {
      "inputs": [],
      "name": "protocolId",
      "outputs": [
        {
          "internalType": "uint256",
          "name": "",
          "type": "uint256"
        }
      ],
      "stateMutability": "pure",
      "type": "function"
    },
    {
      "inputs": [
        {
          "internalType": "string",
          "name": "betId",
          "type": "string"
        }
      ],
      "name": "requestTallyReveal",
      "outputs": [],
      "stateMutability": "nonpayable",
      "type": "function"
    },
    {
      "inputs": [
        {
          "internalType": "uint256",
          "name": "requestId",
          "type": "uint256"
        },
        {
          "internalType": "bytes",
          "name": "cleartexts",
          "type": "bytes"
        },
        {
          "internalType": "bytes",
          "name": "decryptionProof",
          "type": "bytes"
        }
      ],
      "name": "resolveTallyCallback",
      "outputs": [],
      "stateMutability": "nonpayable",
      "type": "function"
    },
    {
      "inputs": [
        {
          "internalType": "uint256",
          "name": "newStake",
          "type": "uint256"
        }
      ],
      "name": "setPlatformStake",
      "outputs": [],
      "stateMutability": "nonpayable",
      "type": "function"
    },
    {
      "inputs": [
        {
          "internalType": "bool",
          "name": "enabled",
          "type": "bool"
        }
      ],
      "name": "setTesting",
      "outputs": [],
      "stateMutability": "nonpayable",
      "type": "function"
    },
    {
      "inputs": [
        {
          "internalType": "string",
          "name": "betId",
          "type": "string"
        }
      ],
      "name": "testingFundPrizePool",
      "outputs": [],
      "stateMutability": "payable",
      "type": "function"
    },
    {
      "inputs": [
        {
          "internalType": "string",
          "name": "betId",
          "type": "string"
        },
        {
          "internalType": "address",
          "name": "voter",
          "type": "address"
        },
        {
          "internalType": "uint8",
          "name": "voteType",
          "type": "uint8"
        }
      ],
      "name": "testingMarkVoted",
      "outputs": [],
      "stateMutability": "nonpayable",
      "type": "function"
    },
    {
      "inputs": [
        {
          "internalType": "string",
          "name": "betId",
          "type": "string"
        },
        {
          "internalType": "uint64",
          "name": "revealedYes",
          "type": "uint64"
        },
        {
          "internalType": "uint64",
          "name": "revealedNo",
          "type": "uint64"
        }
      ],
      "name": "testingResolve",
      "outputs": [],
      "stateMutability": "nonpayable",
      "type": "function"
    },
    {
      "inputs": [
        {
          "internalType": "string",
          "name": "betId",
          "type": "string"
        },
        {
          "internalType": "externalEuint64",
          "name": "encryptedWeight",
          "type": "bytes32"
        },
        {
          "internalType": "uint8",
          "name": "voteType",
          "type": "uint8"
        },
        {
          "internalType": "bytes",
          "name": "inputProof",
          "type": "bytes"
        }
      ],
      "name": "vote",
      "outputs": [],
      "stateMutability": "payable",
      "type": "function"
    },
    {
      "inputs": [
        {
          "internalType": "address",
          "name": "to",
          "type": "address"
        }
      ],
      "name": "withdrawPlatformFees",
      "outputs": [],
      "stateMutability": "nonpayable",
      "type": "function"
    },
    {
      "stateMutability": "payable",
      "type": "receive"
    }
  ],
  "bytecode": "0x608060405266470de4df8200005f55348015610019575f5ffd5b506101946100b8604080516080810182525f808252602082018190529181018290526060810191909152506040805160808101825273687820221192c5b662b25367f70076a37bc79b6c815273848b0066793bcc60346da1f49049357399b8d595602082015273a02cda4ca3a71d7c46997716f4283aa851c2881291810191909152731364cbbf2cdf5032c47d8226a6f6fbd2afcdacac606082015290565b80517f9e7b61f58c47dc699ac88507c4f5bb9f121c03808c5676a8078fe583e464970080546001600160a01b03199081166001600160a01b039384161790915560208301517f9e7b61f58c47dc699ac88507c4f5bb9f121c03808c5676a8078fe583e46497018054831691841691909117905560408301517f9e7b61f58c47dc699ac88507c4f5bb9f121c03808c5676a8078fe583e46497028054831691841691909117905560608301517f9e7b61f58c47dc699ac88507c4f5bb9f121c03808c5676a8078fe583e46497038054909216921691909117905550565b600680546001600160a01b03191633179055613208806101b35f395ff3fe6080604052600436106101b2575f3560e01c80639af06cd9116100e7578063da1f12ab11610087578063ec3889b511610062578063ec3889b51461055c578063ecb4825a1461057b578063f0c42e0f1461059a578063fa73914c146105b9575f5ffd5b8063da1f12ab146104fa578063e31f1c781461050e578063e778fda114610548575f5ffd5b8063b6a6d177116100c2578063b6a6d17714610487578063c3c84ef01461049c578063cc724b27146104bb578063d498e428146104db575f5ffd5b80639af06cd9146104155780639ec57d551461045e578063b1724b4614610471575f5ffd5b8063471a20871161015257806375c736631161012d57806375c73663146103925780638da5cb5b146103b157806395beeae8146103e85780639744aba514610402575f5ffd5b8063471a2087146103355780634e8b87fe1461035457806352b89dd414610373575f5ffd5b8063194a4e7e1161018d578063194a4e7e1461027e57806323cadfce146102a1578063244bbdcb146102d057806326190b03146102e3575f5ffd5b806306caf890146101bd578063078d1600146101de57806308ed8d161461025f575f5ffd5b366101b957005b5f5ffd5b3480156101c8575f5ffd5b506101dc6101d7366004612968565b6105d8565b005b3480156101e9575f5ffd5b506101fd6101f8366004612a24565b610676565b604080516001600160a01b03909a168a5260208a0198909852968801959095526060870193909352901515608086015267ffffffffffffffff90811660a08601521660c084015260e08301521515610100820152610120015b60405180910390f35b34801561026a575f5ffd5b506101dc610279366004612a66565b610745565b348015610289575f5ffd5b5061029360055481565b604051908152602001610256565b3480156102ac575f5ffd5b506102c06102bb366004612a9c565b6107c4565b6040519015158152602001610256565b6101dc6102de366004612a24565b610805565b3480156102ee575f5ffd5b506103026102fd366004612a24565b610921565b6040516102569493929190931515845267ffffffffffffffff928316602085015291166040830152606082015260800190565b348015610340575f5ffd5b506102c061034f366004612a24565b610981565b34801561035f575f5ffd5b506101dc61036e366004612a24565b6109ab565b34801561037e575f5ffd5b506101dc61038d366004612afc565b610c2e565b34801561039d575f5ffd5b506101dc6103ac366004612b6c565b610d8c565b3480156103bc575f5ffd5b506006546103d0906001600160a01b031681565b6040516001600160a01b039091168152602001610256565b3480156103f3575f5ffd5b506102936611c37937e0800081565b6101dc610410366004612bc6565b610f2d565b348015610420575f5ffd5b506102c061042f366004612a9c565b81516020818401810180516002825292820194820194909420919093529091525f908152604090205460ff1681565b6101dc61046c366004612c75565b6112c4565b34801561047c575f5ffd5b5061029362278d0081565b348015610492575f5ffd5b5061029361012c81565b3480156104a7575f5ffd5b506102936104b6366004612a24565b61163d565b3480156104c6575f5ffd5b506006546102c090600160a01b900460ff1681565b3480156104e6575f5ffd5b506102c06104f5366004612a24565b611667565b348015610505575f5ffd5b50612711610293565b348015610519575f5ffd5b506102c0610528366004612a24565b805160208183018101805160038252928201919093012091525460ff1681565b348015610553575f5ffd5b506102935f5481565b348015610567575f5ffd5b506101dc610576366004612cbf565b611693565b348015610586575f5ffd5b506101dc610595366004612a24565b61181a565b3480156105a5575f5ffd5b506101dc6105b4366004612cd8565b611a62565b3480156105c4575f5ffd5b506101dc6105d3366004612a24565b611c27565b6006546001600160a01b031633146106235760405162461bcd60e51b81526020600482015260096024820152682737ba1037bbb732b960b91b60448201526064015b60405180910390fd5b5f81116106725760405162461bcd60e51b815260206004820152601f60248201527f506c6174666f726d207374616b65206d75737420626520706f73697469766500604482015260640161061a565b5f55565b5f5f5f5f5f5f5f5f5f5f60018b6040516106909190612d5c565b908152604051908190036020019020805460018201546002830154600384015460048501549495506001600160a01b03909316939192909160ff16806106d6575f6106e6565b600786015467ffffffffffffffff165b600487015460ff166106f8575f61070f565b6007870154600160401b900467ffffffffffffffff165b8760080154886009015f9054906101000a900460ff16995099509950995099509950995099509950509193959799909294969850565b6006546001600160a01b0316331461078b5760405162461bcd60e51b81526020600482015260096024820152682737ba1037bbb732b960b91b604482015260640161061a565b60068054911515600160a01b027fffffffffffffffffffffff00ffffffffffffffffffffffffffffffffffffffff909216919091179055565b5f6008836040516107d59190612d5c565b90815260408051602092819003830190206001600160a01b0385165f908152925290205460ff1690505b92915050565b6006546001600160a01b0316331461084b5760405162461bcd60e51b81526020600482015260096024820152682737ba1037bbb732b960b91b604482015260640161061a565b600654600160a01b900460ff166108975760405162461bcd60e51b815260206004820152601060248201526f15195cdd1a5b99c8191a5cd8589b195960821b604482015260640161061a565b5f6001826040516108a89190612d5c565b90815260405190819003602001902080549091506001600160a01b03166109055760405162461bcd60e51b815260206004820152601160248201527010995d08191bd95cdb89dd08195e1a5cdd607a1b604482015260640161061a565b34816008015f8282546109189190612d7b565b90915550505050565b5f5f5f5f5f6001866040516109369190612d5c565b90815260405190819003602001902060048101546007820154600a9092015460ff909116965067ffffffffffffffff8083169650600160401b90920490911693509150509193509193565b5f6003826040516109929190612d5c565b9081526040519081900360200190205460ff1692915050565b5f6001826040516109bc9190612d5c565b908152604051908190036020019020600481015490915060ff16610a155760405162461bcd60e51b815260206004820152601060248201526f10995d081b9bdd081c995cdbdb1d995960821b604482015260640161061a565b600781015467ffffffffffffffff808216600160401b9092041614610a7c5760405162461bcd60e51b815260206004820152600960248201527f4e6f742061207469650000000000000000000000000000000000000000000000604482015260640161061a565b600282604051610a8c9190612d5c565b9081526040805160209281900383019020335f908152925290205460ff16610ae55760405162461bcd60e51b815260206004820152600c60248201526b446964206e6f7420766f746560a01b604482015260640161061a565b600882604051610af59190612d5c565b9081526040805160209281900383019020335f908152925290205460ff1615610b525760405162461bcd60e51b815260206004820152600f60248201526e105b1c9958591e4818db185a5b5959608a1b604482015260640161061a565b6001600883604051610b649190612d5c565b9081526040805160209281900383018120335f81815291909452918220805460ff19169415159490941790935560028401549290919083908381818185875af1925050503d805f8114610bd2576040519150601f19603f3d011682016040523d82523d5f602084013e610bd7565b606091505b5050905080610c285760405162461bcd60e51b815260206004820152601460248201527f4661696c656420746f2073656e64204574686572000000000000000000000000604482015260640161061a565b50505050565b6006546001600160a01b03163314610c745760405162461bcd60e51b81526020600482015260096024820152682737ba1037bbb732b960b91b604482015260640161061a565b600654600160a01b900460ff16610cc05760405162461bcd60e51b815260206004820152601060248201526f15195cdd1a5b99c8191a5cd8589b195960821b604482015260640161061a565b5f600184604051610cd19190612d5c565b90815260405190819003602001902080549091506001600160a01b0316610d2e5760405162461bcd60e51b815260206004820152601160248201527010995d08191bd95cdb89dd08195e1a5cdd607a1b604482015260640161061a565b60078101805467ffffffffffffffff938416600160401b81026fffffffffffffffffffffffffffffffff199092169590941694851717905560048101805460ff19908116600117909155600990910180549091169190921117905550565b6006546001600160a01b03163314610dd25760405162461bcd60e51b81526020600482015260096024820152682737ba1037bbb732b960b91b604482015260640161061a565b600654600160a01b900460ff16610e1e5760405162461bcd60e51b815260206004820152601060248201526f15195cdd1a5b99c8191a5cd8589b195960821b604482015260640161061a565b5f600184604051610e2f9190612d5c565b90815260405190819003602001902080549091506001600160a01b0316610e8c5760405162461bcd60e51b815260206004820152601160248201527010995d08191bd95cdb89dd08195e1a5cdd607a1b604482015260640161061a565b6001600285604051610e9e9190612d5c565b90815260408051602092819003830181206001600160a01b0388165f90815293529120805460ff1916921515929092179091558290600790610ee1908790612d5c565b90815260200160405180910390205f856001600160a01b03166001600160a01b031681526020019081526020015f205f6101000a81548160ff021916908360ff16021790555050505050565b5f600186604051610f3e9190612d5c565b90815260405190819003602001902080549091506001600160a01b0316610f9b5760405162461bcd60e51b815260206004820152601160248201527010995d08191bd95cdb89dd08195e1a5cdd607a1b604482015260640161061a565b600481015460ff1615610ff05760405162461bcd60e51b815260206004820152601460248201527f42657420616c7265616479207265736f6c766564000000000000000000000000604482015260640161061a565b806003015442106110435760405162461bcd60e51b815260206004820152600b60248201527f4265742065787069726564000000000000000000000000000000000000000000604482015260640161061a565b806002015434146110965760405162461bcd60e51b815260206004820152601460248201527f496e636f727265637420766f7465207374616b65000000000000000000000000604482015260640161061a565b6002866040516110a69190612d5c565b9081526040805160209281900383019020335f908152925290205460ff16156111115760405162461bcd60e51b815260206004820152600d60248201527f416c726561647920766f74656400000000000000000000000000000000000000604482015260640161061a565b5f6111518685858080601f0160208091040260200160405190810160405280939291908181526020018383808284375f9201919091525061206492505050565b90505f61115d5f612078565b90505f61117e61116f8860ff16612078565b6111796001612078565b61208e565b90505f6111996111908960ff16612078565b6111795f612078565b90506111b385600501546111ae8487876120bc565b6120d0565b600586015560068501546111cc906111ae8387876120bc565b600686015560058501546111df906120fe565b506111ed85600601546120fe565b50600160028b6040516112009190612d5c565b9081526040805160209281900383018120335f90815293529120805460ff191692151592909217909155889060079061123a908d90612d5c565b9081526040805160209281900383019020335f90815292528120805460ff191660ff939093169290921790915560088601805434929061127b908490612d7b565b90915550506040517fdd4c99251f425e725972ff09e5348689020fce09b3b010f8573d992fe79afcf1906112b0908c90612dbc565b60405180910390a150505050505050505050565b5f5434146113205760405162461bcd60e51b815260206004820152602360248201527f4d757374207374616b65207468652063757272656e7420706c6174666f726d2060448201526266656560e81b606482015260840161061a565b3460055f8282546113319190612d7b565b90915550506611c37937e0800082101561138d5760405162461bcd60e51b815260206004820152601260248201527f566f7465207374616b6520746f6f206c6f770000000000000000000000000000604482015260640161061a565b61012c81101580156113a2575062278d008111155b6113ee5760405162461bcd60e51b815260206004820152601060248201527f496e76616c6964206475726174696f6e00000000000000000000000000000000604482015260640161061a565b5f6001600160a01b03166001846040516114089190612d5c565b908152604051908190036020019020546001600160a01b03161461146e5760405162461bcd60e51b815260206004820152601260248201527f42657420616c7265616479206578697374730000000000000000000000000000604482015260640161061a565b6040805161018081018252338152346020820152908101839052606081016114968342612d7b565b81526020015f151581526020016114ac5f612078565b81526020016114ba5f612078565b81525f602082018190526040808301829052606083018290526080830182905260a090920152516001906114ef908690612d5c565b90815260408051918290036020908101909220835181546001600160a01b039091167fffffffffffffffffffffffff0000000000000000000000000000000000000000909116178155918301516001830155820151600282015560608201516003820155608082015160048201805491151560ff1992831617905560a0830151600583015560c0830151600683015560e083015160078301805461010086015167ffffffffffffffff908116600160401b026fffffffffffffffffffffffffffffffff1990921693169290921791909117905561012083015160088301556101408301516009830180549115159190921617905561016090910151600a909101557f396a008d39661f5517b6b9448ced32a2aba87a71b9e8f6f1ceda72188ebb5b498333348561161f8642612d7b565b604051611630959493929190612dce565b60405180910390a1505050565b5f60018260405161164e9190612d5c565b9081526020016040518091039020600a01549050919050565b5f6001826040516116789190612d5c565b908152604051908190036020019020600a0154151592915050565b6006546001600160a01b031633146116d95760405162461bcd60e51b81526020600482015260096024820152682737ba1037bbb732b960b91b604482015260640161061a565b5f6005541161172a5760405162461bcd60e51b815260206004820152601360248201527f4e6f206665657320746f20776974686472617700000000000000000000000000604482015260640161061a565b600580545f918290556040519091906001600160a01b0384169083908381818185875af1925050503d805f811461177c576040519150601f19603f3d011682016040523d82523d5f602084013e611781565b606091505b50509050806117d25760405162461bcd60e51b815260206004820152600f60248201527f5769746864726177206661696c65640000000000000000000000000000000000604482015260640161061a565b826001600160a01b03167ffc7ad544ff6a06d6499925723d25b6fe70457a42939995b1d3d6f560fe3363338360405161180d91815260200190565b60405180910390a2505050565b5f60018260405161182b9190612d5c565b90815260405190819003602001902080549091506001600160a01b03166118885760405162461bcd60e51b815260206004820152601160248201527010995d08191bd95cdb89dd08195e1a5cdd607a1b604482015260640161061a565b80600301544210156118dc5760405162461bcd60e51b815260206004820152600f60248201527f426574206e6f7420657870697265640000000000000000000000000000000000604482015260640161061a565b600481015460ff16156119315760405162461bcd60e51b815260206004820152601060248201527f416c7265616479207265736f6c76656400000000000000000000000000000000604482015260640161061a565b80546001600160a01b0316331461198a5760405162461bcd60e51b815260206004820152601f60248201527f4f6e6c792063726561746f722063616e20726571756573742072657665616c00604482015260640161061a565b6040805160028082526060820183525f926020830190803683375050506005830154909150815f815181106119c1576119c1612e0d565b60209081029190910101526006820154816001815181106119e4576119e4612e0d565b60209081029190910101525f611a018263f0c42e0f60e01b61210d565b600a84018190555f818152600460205260409020909150611a228582612ea5565b507f3e6215a6831a3ef5273364ce91fb108c47eba89cc6526039eb3bea05875320888482604051611a54929190612f60565b60405180910390a150505050565b611a6d838383612119565b5f5f83806020019051810190611a839190612f81565b5f878152600460205260408120805493955091935091611aa290612e21565b80601f0160208091040260200160405190810160405280929190818152602001828054611ace90612e21565b8015611b195780601f10611af057610100808354040283529160200191611b19565b820191905f5260205f20905b815481529060010190602001808311611afc57829003601f168201915b505050505090505f600182604051611b319190612d5c565b90815260405160209181900391909101812060078101805467ffffffffffffffff8881166fffffffffffffffffffffffffffffffff199092168217600160401b9189169182021790925560048301805460ff19908116600190811790925560098501805494909311931692909217905590925090600390611bb3908590612d5c565b908152604051908190036020018120805492151560ff1990931692909217909155600982015460088301547fb11d77d06f2736290ba31cc90ed01c25f49d67c77f6679a242143743750aed1592611c1692869260ff919091169189918991612fb9565b60405180910390a150505050505050565b5f600182604051611c389190612d5c565b908152604051908190036020019020600481015490915060ff16611c915760405162461bcd60e51b815260206004820152601060248201526f10995d081b9bdd081c995cdbdb1d995960821b604482015260640161061a565b600882604051611ca19190612d5c565b9081526040805160209281900383019020335f908152925290205460ff1615611cfe5760405162461bcd60e51b815260206004820152600f60248201526e105b1c9958591e4818db185a5b5959608a1b604482015260640161061a565b600282604051611d0e9190612d5c565b9081526040805160209281900383019020335f908152925290205460ff16611d675760405162461bcd60e51b815260206004820152600c60248201526b446964206e6f7420766f746560a01b604482015260640161061a565b600781015467ffffffffffffffff600160401b82048116911603611dcd5760405162461bcd60e51b815260206004820152601460248201527f5469652c2075736520636c61696d526566756e64000000000000000000000000604482015260640161061a565b60098101545f9060ff168015611e125750600783604051611dee9190612d5c565b90815260408051918290036020908101909220335f908152925290205460ff166001145b80611e585750600982015460ff16158015611e585750600783604051611e389190612d5c565b9081526040805160209281900383019020335f908152925290205460ff16155b905080611ea75760405162461bcd60e51b815260206004820152600c60248201527f4e6f7420612077696e6e65720000000000000000000000000000000000000000604482015260640161061a565b6001600884604051611eb99190612d5c565b9081526040805160209281900383019020335f90815292528120805460ff1916921515929092179091556002830154600984015490919060ff16611f12576007840154600160401b900467ffffffffffffffff16611f22565b600784015467ffffffffffffffff165b67ffffffffffffffff1690505f8111611f7d5760405162461bcd60e51b815260206004820152600a60248201527f4e6f2077696e6e65727300000000000000000000000000000000000000000000604482015260640161061a565b5f81838660080154611f8f9190612ff7565b611f99919061300e565b6040519091505f90339083908381818185875af1925050503d805f8114611fdb576040519150601f19603f3d011682016040523d82523d5f602084013e611fe0565b606091505b50509050806120315760405162461bcd60e51b815260206004820152601460248201527f4661696c656420746f2073656e64204574686572000000000000000000000000604482015260640161061a565b7f03fcbbdf8f723f64756f2a8bd13039d673bfda48e348d21bc292b1a5a6b1746e873384604051611c169392919061302d565b5f61207183836005612182565b9392505050565b5f6107ff8267ffffffffffffffff16600561228f565b5f826120a05761209d5f612078565b92505b816120b1576120ae5f612078565b91505b61207183835f612331565b5f6120c8848484612419565b949350505050565b5f826120e2576120df5f612078565b92505b816120f3576120f05f612078565b91505b61207183835f6124af565b5f6121098230612551565b5090565b5f61207183835f6125c7565b5f612123846126e2565b90505f6121318285856127b3565b9050806121515760405163cf6c44e960e01b815260040160405180910390fd5b60405185907f1af0453083661051f6e56e5c070792320652e612154bf9af8637bb1e7655b99d905f90a25050505050565b7f9e7b61f58c47dc699ac88507c4f5bb9f121c03808c5676a8078fe583e46497015460405163196d0b9b60e01b81525f915f5160206131dc5f395f51905f52916001600160a01b039091169063196d0b9b906121e890889033908990899060040161307a565b6020604051808303815f875af1158015612204573d5f5f3e3d5ffd5b505050506040513d601f19601f8201168201806040525081019061222891906130b0565b8154604051630f8e573b60e21b8152600481018390523360248201529193506001600160a01b031690633e395cec906044015f604051808303815f87803b158015612271575f5ffd5b505af1158015612283573d5f5f3e3d5ffd5b50505050509392505050565b7f9e7b61f58c47dc699ac88507c4f5bb9f121c03808c5676a8078fe583e464970154604051639cd07acb60e01b81525f915f5160206131dc5f395f51905f52916001600160a01b0390911690639cd07acb906122f190879087906004016130c7565b6020604051808303815f875af115801561230d573d5f5f3e3d5ffd5b505050506040513d601f19601f820116820180604052508101906120c891906130b0565b5f5f82156123445750600160f81b612347565b505f5b7f9e7b61f58c47dc699ac88507c4f5bb9f121c03808c5676a8078fe583e46497015460405163f77f3f1d60e01b815260048101879052602481018690527fff00000000000000000000000000000000000000000000000000000000000000831660448201525f5160206131dc5f395f51905f52916001600160a01b03169063f77f3f1d906064015b6020604051808303815f875af11580156123eb573d5f5f3e3d5ffd5b505050506040513d601f19601f8201168201806040525081019061240f91906130b0565b9695505050505050565b5f805f5160206131dc5f395f51905f526001810154604051637702dcff60e01b81526004810188905260248101879052604481018690529192506001600160a01b031690637702dcff906064016020604051808303815f875af1158015612482573d5f5f3e3d5ffd5b505050506040513d601f19601f820116820180604052508101906124a691906130b0565b95945050505050565b5f5f82156124c25750600160f81b6124c5565b505f5b7f9e7b61f58c47dc699ac88507c4f5bb9f121c03808c5676a8078fe583e46497015460405163022f65e760e31b815260048101879052602481018690527fff00000000000000000000000000000000000000000000000000000000000000831660448201525f5160206131dc5f395f51905f52916001600160a01b03169063117b2f38906064016123cf565b5f5f5160206131dc5f395f51905f528054604051635ca4b5b160e11b8152600481018690526001600160a01b03858116602483015292935091169063b9496b62906044015f604051808303815f87803b1580156125ac575f5ffd5b505af11580156125be573d5f5f3e3d5ffd5b50505050505050565b7f878245876662ba28a480c5ea71726db859fb50222b0a3d7cbbc21cfa336faf0080545f5160206131dc5f395f51905f528054604051637d6e912360e11b81529293926001600160a01b039091169063fadd22469061262a908990600401613115565b5f604051808303815f87803b158015612641575f5ffd5b505af1158015612653573d5f5f3e3d5ffd5b5050506002820154604051633263b83b60e01b81526001600160a01b039091169150633263b83b90869061268f9087908b908b90600401613127565b5f604051808303818588803b1580156126a6575f5ffd5b505af11580156126b8573d5f5f3e3d5ffd5b50505050506126c7838761288c565b8154825f6126d483613158565b919050555050509392505050565b5f8181527f878245876662ba28a480c5ea71726db859fb50222b0a3d7cbbc21cfa336faf0160205260408120546060917f878245876662ba28a480c5ea71726db859fb50222b0a3d7cbbc21cfa336faf009190036127535760405163d66ca67560e01b815260040160405180910390fd5b5f838152600182016020908152604091829020805483518184028101840190945280845290918301828280156127a657602002820191905f5260205f20905b815481526020019060010190808311612792575b5050505050915050919050565b5f5f835160206127c39190612d7b565b6127ce906020612d7b565b90505f84826040516020016127e4929190613170565b60405160208183030381529060405290505f61280a5f5160206131dc5f395f51905f5290565b60038101546040516378542ead60e01b81529192506001600160a01b0316906378542ead90612841908a9086908a90600401613188565b6020604051808303815f875af115801561285d573d5f5f3e3d5ffd5b505050506040513d601f19601f8201168201806040525081019061288191906131c0565b979650505050505050565b5f8281527f878245876662ba28a480c5ea71726db859fb50222b0a3d7cbbc21cfa336faf0160205260409020547f878245876662ba28a480c5ea71726db859fb50222b0a3d7cbbc21cfa336faf0090156128f957604051633f06d22b60e01b815260040160405180910390fd5b5f83815260018201602090815260409091208351610c2892850190828054828255905f5260205f2090810192821561294d579160200282015b8281111561294d578251825591602001919060010190612932565b506121099291505b80821115612109575f8155600101612955565b5f60208284031215612978575f5ffd5b5035919050565b634e487b7160e01b5f52604160045260245ffd5b5f82601f8301126129a2575f5ffd5b8135602083015f5f67ffffffffffffffff8411156129c2576129c261297f565b50604051601f19601f85018116603f0116810181811067ffffffffffffffff821117156129f1576129f161297f565b604052838152905080828401871015612a08575f5ffd5b838360208301375f602085830101528094505050505092915050565b5f60208284031215612a34575f5ffd5b813567ffffffffffffffff811115612a4a575f5ffd5b6120c884828501612993565b8015158114612a63575f5ffd5b50565b5f60208284031215612a76575f5ffd5b813561207181612a56565b80356001600160a01b0381168114612a97575f5ffd5b919050565b5f5f60408385031215612aad575f5ffd5b823567ffffffffffffffff811115612ac3575f5ffd5b612acf85828601612993565b925050612ade60208401612a81565b90509250929050565b67ffffffffffffffff81168114612a63575f5ffd5b5f5f5f60608486031215612b0e575f5ffd5b833567ffffffffffffffff811115612b24575f5ffd5b612b3086828701612993565b9350506020840135612b4181612ae7565b91506040840135612b5181612ae7565b809150509250925092565b803560ff81168114612a97575f5ffd5b5f5f5f60608486031215612b7e575f5ffd5b833567ffffffffffffffff811115612b94575f5ffd5b612ba086828701612993565b935050612baf60208501612a81565b9150612bbd60408501612b5c565b90509250925092565b5f5f5f5f5f60808688031215612bda575f5ffd5b853567ffffffffffffffff811115612bf0575f5ffd5b612bfc88828901612993565b95505060208601359350612c1260408701612b5c565b9250606086013567ffffffffffffffff811115612c2d575f5ffd5b8601601f81018813612c3d575f5ffd5b803567ffffffffffffffff811115612c53575f5ffd5b886020828401011115612c64575f5ffd5b959894975092955050506020019190565b5f5f5f60608486031215612c87575f5ffd5b833567ffffffffffffffff811115612c9d575f5ffd5b612ca986828701612993565b9660208601359650604090950135949350505050565b5f60208284031215612ccf575f5ffd5b61207182612a81565b5f5f5f60608486031215612cea575f5ffd5b83359250602084013567ffffffffffffffff811115612d07575f5ffd5b612d1386828701612993565b925050604084013567ffffffffffffffff811115612d2f575f5ffd5b612d3b86828701612993565b9150509250925092565b5f81518060208401855e5f93019283525090919050565b5f6120718284612d45565b634e487b7160e01b5f52601160045260245ffd5b808201808211156107ff576107ff612d67565b5f81518084528060208401602086015e5f602082860101526020601f19601f83011685010191505092915050565b602081525f6120716020830184612d8e565b60a081525f612de060a0830188612d8e565b90506001600160a01b03861660208301528460408301528360608301528260808301529695505050505050565b634e487b7160e01b5f52603260045260245ffd5b600181811c90821680612e3557607f821691505b602082108103612e5357634e487b7160e01b5f52602260045260245ffd5b50919050565b601f821115612ea057805f5260205f20601f840160051c81016020851015612e7e5750805b601f840160051c820191505b81811015612e9d575f8155600101612e8a565b50505b505050565b815167ffffffffffffffff811115612ebf57612ebf61297f565b612ed381612ecd8454612e21565b84612e59565b6020601f821160018114612f05575f8315612eee5750848201515b5f19600385901b1c1916600184901b178455612e9d565b5f84815260208120601f198516915b82811015612f345787850151825560209485019460019092019101612f14565b5084821015612f5157868401515f19600387901b60f8161c191681555b50505050600190811b01905550565b604081525f612f726040830185612d8e565b90508260208301529392505050565b5f5f60408385031215612f92575f5ffd5b8251612f9d81612ae7565b6020840151909250612fae81612ae7565b809150509250929050565b60a081525f612fcb60a0830188612d8e565b95151560208301525067ffffffffffffffff938416604082015291909216606082015260800152919050565b80820281158282048414176107ff576107ff612d67565b5f8261302857634e487b7160e01b5f52601260045260245ffd5b500490565b606081525f61303f6060830186612d8e565b6001600160a01b039490941660208301525060400152919050565b6054811061307657634e487b7160e01b5f52602160045260245ffd5b9052565b8481526001600160a01b0384166020820152608060408201525f6130a16080830185612d8e565b90506124a6606083018461305a565b5f602082840312156130c0575f5ffd5b5051919050565b82815260408101612071602083018461305a565b5f8151808452602084019350602083015f5b8281101561310b5781518652602095860195909101906001016130ed565b5093949350505050565b602081525f61207160208301846130db565b838152606060208201525f61313f60608301856130db565b905063ffffffff60e01b83166040830152949350505050565b5f6001820161316957613169612d67565b5060010190565b5f61317b8285612d45565b9283525050602001919050565b606081525f61319a60608301866130db565b82810360208401526131ac8186612d8e565b9050828103604084015261240f8185612d8e565b5f602082840312156131d0575f5ffd5b815161207181612a5656fe9e7b61f58c47dc699ac88507c4f5bb9f121c03808c5676a8078fe583e4649700a164736f6c634300081b000a",
  "linkReferences": {},
  "deployedLinkReferences": {}
}